:020000040800F2
:1000000000800020D51E0008010700080307000833
:1000100000000000000000000000000000000000E0
:1000200000000000000000000000000005070008BC
:100030000000000000000000070700080907000892
:10004000251F000800000000251F0008251F0008CC
:10005000251F0008251F0008251F0008251F000870
:1000600000000000251F0008251F0008251F0008AC
:10007000251F0008251F0008251F0008000000009C
:10008000251F0008251F0008251F0008251F000840
:10009000251F0008251F0008251F0008251F000830
:1000A000251F0008251F0008251F0008251F000820
:0C00B000251F0008251F000800000000AC
:1000BC0010B5064C2378002B07D1054B002B02D032
:1000CC00044800E000BF0123237010BD3C04002055
:1000DC000000000018210008044B10B5002B03D0C1
:1000EC000349044800E000BF10BDC04600000000FA
:1000FC004004002018210008002243088B4274D3CE
:10010C0003098B425FD3030A8B4244D3030B8B420C
:10011C0028D3030C8B420DD3FF22090212BA030C15
:10012C008B4202D31212090265D0030B8B4219D3F6
:10013C0000E0090AC30B8B4201D3CB03C01A524116
:10014C00830B8B4201D38B03C01A5241430B8B425E
:10015C0001D34B03C01A5241030B8B4201D30B0347
:10016C00C01A5241C30A8B4201D3CB02C01A52416E
:10017C00830A8B4201D38B02C01A5241430A8B4231
:10018C0001D34B02C01A5241030A8B4201D30B021A
:10019C00C01A5241CDD2C3098B4201D3CB01C01A34
:1001AC00524183098B4201D38B01C01A524143093E
:1001BC008B4201D34B01C01A524103098B4201D32C
:1001CC000B01C01A5241C3088B4201D3CB00C01A99
:1001DC00524183088B4201D38B00C01A5241430811
:1001EC008B4201D34B00C01A5241411A00D2014636
:1001FC00524110467047FFE701B5002000F006F8A9
:10020C0002BDC0460029F7D076E770477047C0465C
:10021C0030B589B01422002103A801F0A1FE204BB7
:10022C0059698020C003014359615A690240009208
:10023C00009A596980208002014359615A69024031
:10024C000192019A5A698021C9020A435A615B6979
:10025C000B400293029B9025ED05002238212800CB
:10026C0000F00EFD38230393373B049300240594D0
:10027C00069403A9280000F03BFC40230393094B90
:10028C000493059403A9280000F032FC8023039307
:10029C000494059403A9280000F02AFC09B030BD91
:1002AC00001002400000111070B584B00C22002127
:1002BC0001A801F055FE1C4C1C4B23600025656009
:1002CC00A560E560012626610423636125766576C9
:1002DC00A576E576C223FF33E36125629E3BFF3BA7
:1002EC00E554A662200000F059FA019580235B01C9
:1002FC00029380235B05039301A9200000F010FBFF
:10030C00019601A9200000F00BFB0223019301A927
:10031C00200000F005FB1023019301A9200000F040
:10032C00FFFA04B070BDC0466405002000240140F3
:10033C0010B50D4C0D4B23600D4B63600023A36077
:10034C000122E26023616361A361E3612362200007
:10035C0000F09CFC0021200000F0FEFC002120009D
:10036C0000F026FD10BDC04658040020005400408B
:10037C005D3E302030B593B00822002110A801F06A
:10038C00EFFD1C22002109A801F0EAFD202200212A
:10039C0001A801F0E5FD1C4D1C4B2B6000246C608A
:1003AC00AC601B4BEB602C616C61AC61280001F004
:1003BC0009FA1094119410A9280001F0D7FA6023BF
:1003CC0009930A940B940C940D940E940F940022A0
:1003DC0009A9280001F054FA042209A9280001F007
:1003EC004FFA0194029403940494059480239B0186
:1003FC000693089401A9280001F0EAFA280000F0FD
:10040C0001F913B030BDC04624050020002C01407A
:10041C00FFFF000010B50948094B0360E1235B02A4
:10042C00436000238360C36003610C2242618361DB
:10043C00C3610362436201F011FD10BDA4040020EE
:10044C000038014070B594B0182200210AA801F0C0
:10045C0087FD10251022002104A801F081FD102237
:10046C000021684601F07CFD11230893103B099391
:10047C000D930E950226109680235B021193802318
:10048C005B0312930024139408A800F0BBFC072311
:10049C000493059606940794012104A800F044FFE8
:1004AC002123009302940395684600F0EDFF14B0ED
:1004BC0070BD10B500F050F9FFF7C4FFFFF7A8FEB0
:1004CC00FFF7F2FEFFF734FFFFF754FFFFF7A2FF31
:1004DC00FEE7000082B00A4B996901221143996131
:1004EC0099690A400092009ADA69802149050A4309
:1004FC00DA61DB690B400193019B02B07047C04687
:10050C000010024010B588B004001422002103A88A
:10051C0001F026FD2268124B9A4201D008B010BDA2
:10052C00104B996980208000014399619A690240BF
:10053C000192019A5A69802189020A435A615B69C6
:10054C000B400293029B07230393043B0493002369
:10055C0005937138FF3803A9C00500F0C9FADDE72F
:10056C00002401400010024010B588B00400142291
:10057C00002103A801F0F4FC2268144B9A4201D02C
:10058C0008B010BD124C62698021C9020A43626135
:10059C0063690B400193019BC0235B0003936F3B8A
:1005AC00FF3B0493113B059303220692079303A987
:1005BC00084800F09DFAE269802189030A43E26150
:1005CC00E3690B400293029BDAE7C04600540040FB
:1005DC00001002400004004882B00268074B9A42A7
:1005EC0001D002B07047064A916980200001014396
:1005FC009161936903400193019BF2E7002C014048
:10060C000010024010B586B004001422002101A88D
:10061C0001F0A6FC22680F4B9A4201D006B010BD27
:10062C000D4A516980208002014351615369034096
:10063C000093009BC0239B00019302230293002292
:10064C00039204920593902001A9C00500F050FA82
:10065C00E4E7C046002C01400010024070B588B0A1
:10066C0004001422002103A801F07AFC22681E4B1E
:10067C009A4201D008B070BD1C4B99698020C00112
:10068C00014399619A6902400092009A596980204D
:10069C008002014359615A6902400192019A5A69D8
:1006AC008021C9020A435A615B690B400293029B89
:1006BC008023DB0003930226049600240594032573
:1006CC00069501230793902003A9C00500F010FAAA
:1006DC0040230393049605940695079403A90448B4
:1006EC0000F006FAC6E7C046003801400010024090
:1006FC00000400487047FEE77047704710B500F0E3
:10070C003BF810BD7047000010B504000F4B197872
:10071C00FA208000FFF7F0FC01000D4B1868FFF782
:10072C00EBFC00F0C9F900280DD1032C01D90120F4
:10073C000AE0013000222100404200F08DF9054B07
:10074C001C60002000E0012010BDC0460400002009
:10075C00000000200800002010B5064A1368102184
:10076C000B4313600020FFF7CFFFFFF7B3FE002011
:10077C0010BDC04600200240034A1168034B1B7891
:10078C005B1813607047C046A405002004000020CD
:10079C00014B18687047C046A405002070B5041EB4
:1007AC0000D1B4E0836B002B00D180E0A36BDB069F
:1007BC0000D5A6E022689168042005000D4008428F
:1007CC0000D09EE0A16B534B19400633FF33194305
:1007DC00A163916801330B40012B6ED0D3681821B3
:1007EC008B43A1680B43D360226813699B009B0861
:1007FC0061680B4313612268D36847490B40D3608F
:10080C00237E9B03627ED2031343A17E4A031343D0
:10081C00A26A012A58D0802252011343E268134382
:10082C002269022A52D02B432422A25C5200134389
:10083C00E27E012A4CD0E269C221FF318A4202D009
:10084C00216A0A4313432168CA681A43CA60E26AE0
:10085C00802149058A420DD0012A0BD0022A09D0E9
:10086C00032A07D0042A05D0052A03D0062A01D072
:10087C00072A0AD120684169072291434161206807
:10088C004169E56A2A400A4342612268D2682349D9
:10089C000A409A422BD0A36B12229343023A134381
:1008AC00A363E36B0F3A1343E36301202EE0C363AE
:1008BC0034228354FFF726FE78E71368DB079AD4BB
:1008CC00D3681B0497D489E72A00A6E70425AAE776
:1008DC00002903D1802252021343ACE7A26B2021E2
:1008EC000A43A263E26B1F390A43E263A3E70023C6
:1008FC00E363A36B03229343023A1343A3630020E5
:10090C0004E0A36B10221343A363012070BD0120EC
:10091C00FCE7C046FDFEFFFF1902FEFFE7FF3F8329
:10092C0030B583B00400002301933433C35C012B36
:10093C0000D182E034230122C25403689A68520722
:10094C0071D43F4A4868904254D09A6A01200D688D
:10095C00A84002439A62E36A8022520593421ED059
:10096C00012B1CD0022B1AD0032B18D0042B16D021
:10097C00052B14D0062B12D0072B10D022685069EF
:10098C00072303408868984209D05069072398438D
:10099C005061206842698D682B40134343610B689A
:1009AC001A00103A012A01D9002041E0254A1268A8
:1009BC00102B09D08023DB031343224A13600B68EE
:1009CC00102B04D0002033E080231B04F4E71E4BD3
:1009DC0018681E49FFF790FB03008000C018400008
:1009EC000190019B002B03D0019B013B0193F8E785
:1009FC0000201DE09A6A01200D68A84082439A628B
:100A0C000B681A00103A012A01D9002010E00D4A97
:100A1C001268102B05D00E4B13400A4A13600020AD
:100A2C0006E00C4BF8E7836B202213438363012011
:100A3C0034230022E25403B030BD0220FBE7C04651
:100A4C0001100000082701400000002040420F0068
:100A5C00FFFFBFFFFFFF7FFF70B5002811DB83088E
:100A6C00134EC0339B009D5903242040C000FF222D
:100A7C0014008440A54389010A4082402A439A51BC
:100A8C0070BD0F230340083B9B0806339B00094AAB
:100A9C00944663445C6803221040C000FC3215008D
:100AAC008540AC4389010A40824022435A60E7E703
:100ABC0000E100E000ED00E0013880235B04984287
:100ACC000FD2094A50600948036A1B021B0AC02155
:100ADC0009060B4303620023936007331360002065
:100AEC0070470120FCE7C04610E000E000ED00E09C
:100AFC00F0B5CE46474680B583B0002333E00326DD
:100B0C0000E00026A64034003C4302329200564ED0
:100B1C009451564A1468EA432600AE434F68FF03CB
:100B2C0001D52C432600514C2660646826001640E3
:100B3C004F68BF0301D52C4326004C4C6660A4685B
:100B4C00260016404F68FF0201D52C432600474C67
:100B5C00A660E46822404E68B60201D52A00224302
:100B6C00424CE26001330C682200DA4077D001225B
:100B7C009A40250015401442F4D04C68661E012E94
:100B8C0003D9112C01D0122C12D184685F000326DA
:100B9C00BE40B4432600CC68BC40344384604468F7
:100BAC0094434A681609012232409A40224342601B
:100BBC00C4685F000326BE40F2439446B44326004B
:100BCC008C68BC403443C4604A68022A01D0122AA3
:100BDC0010D1DE080836B2009146145807221A408C
:100BEC0092000F269640B4430E6996403200224381
:100BFC004C46225004686246144003224E68324030
:100C0C00BA40224302604A68D200ABD5184CA669A0
:100C1C0001221643A661A46922400192019A9A0806
:100C2C00941CA400104EA75903241C40A4000F26AA
:100C3C00A640B7439026F605B04200D161E70D4EB1
:100C4C00B04208D00C4EB04207D00C4EB04200D18E
:100C5C0055E7052656E7012654E7022652E703B06E
:100C6C00C0BCB946B046F0BD0000014000040140D4
:100C7C00001002400004004800080048000C004826
:100C8C00002A01D0816170478162FCE710B5041E17
:100C9C0059D04123C35C002B43D041232422E2547E
:100CAC002268136801218B4313602268274B61680B
:100CBC000B4013612268936825490B409360E368ED
:100CCC00012B34D0226884231B02A1680B43936050
:100CDC00E368022B32D0226851681E4B0B435360E1
:100CEC002268D3681A490B40D360236962691343A5
:100CFC00A269120221681343CB602268E369216A5E
:100D0C000B4313602268136801210B43136000230B
:100D1C00636441221F31A15423630132A354002088
:100D2C0010BD40330022C254FFF71EFCB5E7226809
:100D3C0080231B02A1680B439360C9E723688022C0
:100D4C0012015A60C7E70120EAE7C046FFFFFFF037
:100D5C00FF7FFFFF00800002F0B54123C35C202B16
:100D6C0020D12033C35C012B1ED04024012202551C
:100D7C004125242343550668336893433360066842
:100D8C0033680A4F3B40336006683368194331605F
:100D9C0001680B6813430B60202343550023035554
:100DAC000020F0BD0220FCE70220FAE7FFEFFFFF76
:100DBC00F0B54123C35C202B1ED12033C35C012B27
:100DCC001CD040240122025541252423435506689A
:100DDC0033689343336006683368094F3B4009021C
:100DEC001943316001680B6813430B602023435592
:100DFC00002303550020F0BD0220FCE70220FAE797
:100E0C00FFF0FFFF70B582B0041E00D138E203681A
:100E1C00DB072BD5B34B5A680C231340042B1DD086
:100E2C00B04B5A680C231340082B0ED06368012B6F
:100E3C0041D0002B56D1AB4B1A68AB490A401A6013
:100E4C001A68AA490A401A603BE0A64B5B68C022AC
:100E5C0052021340802252029342E7D1A14B1B68ED
:100E6C009B0303D56368002B00D10CE223689B071E
:100E7C0077D59C4B5B680C221A4262D0994B5A680E
:100E8C000C231340082B53D0E368002B00D18AE0CD
:100E9C00944A136801210B431360FFF779FC05009A
:100EAC00904B1B689B0775D4FFF772FC401B022804
:100EBC00F6D90320E5E18B4A116880235B020B43D2
:100ECC0013606368002B25D0FFF762FC0500854B8F
:100EDC001B689B03CAD4FFF75BFC401B6428F6D944
:100EEC000320CEE1052B09D07E4B1A687E490A40BF
:100EFC001A601A687D490A401A60E2E7794B196852
:100F0C008022D2020A431A601968802252020A43D4
:100F1C001A60D6E7FFF73CFC0500724B1B689B037D
:100F2C00A4D5FFF735FC401B6428F6D90320A8E1B3
:100F3C006C4B5B68C0225202134080221202934217
:100F4C00A2D1684B1B689B0703D5E368012B00D02B
:100F5C009BE164490B68F82293432269D200134346
:100F6C000B6023681B0744D5E369002B2ED05D4A28
:100F7C00536A01210B435362FFF70AFC0500594BDE
:100F8C005B6A9B0735D4FFF703FC401B0228F6D99C
:100F9C00032076E153490B68F82293432269D2006F
:100FAC0013430B60DDE74F4A136801218B43136039
:100FBC00FFF7EEFB05004B4B1B689B07D1D5FFF7EA
:100FCC00E7FB401B0228F6D903205AE1454A536A35
:100FDC0001218B435362FFF7DBFB0500414B5B6A3E
:100FEC009B0706D5FFF7D4FB401B0228F6D903203C
:100FFC0047E123685B0700D480E03A4BDB69DB00F8
:10100C001DD4384AD169802040050143D161D36990
:10101C0003400193019B0125354B1B68DB0510D563
:10102C00A368012B21D0002B36D12E4B1A6A01213B
:10103C008A431A621A6A03318A431A621AE000253B
:10104C00EAE72B4A116880235B000B431360FFF720
:10105C009FFB0600264B1B68DB05E1D4FFF798FBD2
:10106C00801B6428F6D903200BE11E4A136A012168
:10107C000B431362A368002B24D0FFF789FB0600F7
:10108C00184B1B6A9B0737D4FFF782FB801B194B4D
:10109C009842F5D90320F4E0052B09D0114B1A6ABC
:1010AC0001218A431A621A6A03318A431A62E1E700
:1010BC000C4B1A6A04210A431A621A6A03390A434E
:1010CC001A62D7E7FFF764FB0600064B1B6A9B0707
:1010DC0012D5FFF75DFB801B064B9842F5D9032018
:1010EC00CFE0C04600100240FFFFFEFFFFFFFBFFFA
:1010FC000070004088130000012D33D02368DB06FC
:10110C0010D56369012B33D0053351D1654A536B2C
:10111C0004218B435363536BF4318B43A169C90096
:10112C000B435363236A002B00D1B0E05D4A516836
:10113C000C220A40082A00D18AE0022B4FD0594ACF
:10114C00136859490B401360FFF722FB0400554B01
:10115C001B689B017AD5FFF71BFB001B0228F6D9F5
:10116C0003208EE04F4AD36950490B40D361C5E749
:10117C004C4B5A6B04210A435A635A6B03390A438A
:10118C005A63FFF705FB0500464B5B6B9B0706D4C8
:10119C00FFF7FEFA401B0228F6D9032071E0414903
:1011AC004B6BF8229343A269D20013434B63B9E70C
:1011BC003C4B5A6B04210A435A635A6B03398A43DA
:1011CC005A63FFF7E5FA0500364B5B6B9B07A9D515
:1011DC00FFF7DEFA401B0228F6D9032051E0314A12
:1011EC00136831490B401360FFF7D2FA05002D4B01
:1011FC001B689B0106D5FFF7CBFA401B0228F6D9DA
:10120C0003203EE0274BDA6A0F218A43E16A0A4346
:10121C00DA625A6826490A40A16A606A01430A43A5
:10122C005A601968802252040A431A60FFF7B0FA18
:10123C0004001C4B1B689B0106D4FFF7A9FA001B8A
:10124C000228F6D903201CE000201AE0002018E048
:10125C00012B1ED0134B5A68D96AC0235B02134072
:10126C00606A834217D10F230B40E16A8B4214D181
:10127C00F0239B031A40A36A9A4210D1002000E08D
:10128C00012002B070BD0120FBE70120F9E700202E
:10129C00F7E70120F5E70120F3E70120F1E7012052
:1012AC00EFE7C04600100240FFFFFFFEFFFFFFEF1D
:1012BC00FF7FC2FF10B588B004AA174B13CB13C223
:1012CC001B6813606A46154B13CB13C21B68136063
:1012DC00134B5A680C231340082B02D0114808B04A
:1012EC0010BD910C0733194004A8445C0C49C96A21
:1012FC000B406946C95CC0235B021A4080235B0229
:10130C009A4204D00748FEF7F7FE6043E7E705482A
:10131C00FEF7F2FE6043E2E7482100085C2100087A
:10132C000010024000127A0070B504000D00002875
:10133C0000D17EE0434B1A68012313408B420AD242
:10134C0040490B68012293432B430B600B681A40F6
:10135C00AA4200D06FE023689A070ED55B0705D52B
:10136C00394A5168E023DB000B435360364A53681B
:10137C00F0218B43A1680B4353602368DB072DD509
:10138C006368012B1ED0022B22D02F4A12689207C1
:10139C0053D52D494A680320824313434B60FFF712
:1013AC00F7F90600284B5B680C221A4063689B0017
:1013BC009A4213D0FFF7ECF9801B244B9842F1D9D9
:1013CC00032035E0204A12689203E2D401202FE07A
:1013DC001D4A12689201DCD4012029E0194B1A68CD
:1013EC0001231340AB4209D916490B6801229343E0
:1013FC002B430B600B681A40AA4220D123685B0771
:10140C0006D5114A536812490B40E1680B435360EF
:10141C00FFF750FF0C4B5A6812090F2313400D4A6B
:10142C00D35CD8400C4B18600020FFF76DF90020FE
:10143C0070BD0120FCE70120FAE70120F8E701204C
:10144C00F6E7C0460020024000100240881300005E
:10145C00FFF8FFFF3021000800000020014B186846
:10146C007047C0460000002010B5FFF7F7FF044B93
:10147C005A68120A07231340024AD35CD84010BDA5
:10148C00001002404021000870B582B004000368CF
:10149C00DB0337D53D4BDB69DB0049D43B4AD169D3
:1014AC00802040050143D161D36903400193019B26
:1014BC000125374B1B68DB053CD5344B1A6AC0231E
:1014CC009B00110019401A4213D0626813408B42E2
:1014DC000FD02E4B186A2F4A02401E6A80214902F7
:1014EC0031431962196A2C4E314019621A62C307D2
:1014FC0034D4264A136A27490B4061680B431362A4
:10150C00012D3AD02368DB0706D5204A136B032143
:10151C008B43A1680B43136323689B0632D51B4A8C
:10152C00136B10218B43E1680B43136300202AE0FB
:10153C000025BEE7164A116880235B000B4313603D
:10154C00FFF726F90600124B1B68DB05B5D4FFF735
:10155C001FF9801B6428F6D9032014E0FFF718F953
:10156C0006000A4B1B6A9B07C3D4FFF711F9801BBB
:10157C000A4B9842F5D9032005E0D36908490B4082
:10158C00D361BFE7002002B070BDC046001002401E
:10159C0000700040FFFCFFFFFFFFFEFF8813000000
:1015AC00FFFFFFEF30B5036A012293430362036A26
:1015BC00426884697325AC430D682C430225AB4308
:1015CC008D682B43144DA84208D0144DA84205D069
:1015DC00134DA84202D0134DA84205D10825AB43A8
:1015EC00CD682B430425AB430B4DA84208D00B4DC3
:1015FC00A84205D00A4DA84202D00A4DA84205D1F6
:10160C00094D2A404D692A438D692A434260846101
:10161C004A684263036230BD002C01400040014027
:10162C000044014000480140FFFCFFFF70B5036A15
:10163C00194A13400362036A4268C4697325AC43B8
:10164C000E682643154C23408C6824022343144C0B
:10165C00A04219D0124CA04208D0124CA04205D086
:10166C00114CA04202D0114CA04207D1104C144096
:10167C004A69120122438C6925012A434260C661E2
:10168C004A68C263036270BD0A4C1C40CB681B02E3
:10169C002343094C2340DDE7FFFEFFFFFFFDFFFF67
:1016AC00002C014000400140004401400048014032
:1016BC00FFCFFFFFFFF7FFFFFFFBFFFF30B5036A14
:1016CC00134A13400362026A4368C469114D2C40EB
:1016DC000D682D022C43104D15408A6812032A43C5
:1016EC000E4DA84208D00E4DA84205D00D4DA84273
:1016FC0002D00D4DA84204D10C4D2B404D69AD01CB
:10170C002B434360C4614B680364026230BDC04626
:10171C00FFEFFFFFFF8CFFFFFFDFFFFF002C0140FF
:10172C00004001400044014000480140FFBFFFFF62
:10173C0003681D4A904202D01C4A904203D1702289
:10174C0093434A681343184A90420ED0174A90426A
:10175C000BD0174A904208D0164A904205D0164A30
:10176C00904202D0154A904203D1154A1340CA68E0
:10177C001343802293434A69134303608B68C3620B
:10178C000B688362084B984208D00A4B984205D0EC
:10179C00094B984202D0094B984201D10B69036363
:1017AC00012343617047C046002C014000040040F7
:1017BC00002000400040014000440140004801402E
:1017CC00FFFCFFFF70B5041E14D03D23C35C002B3F
:1017DC000AD03D2502236355210001C9FFF7A8FF5C
:1017EC0001236355002070BD3C330022C254FEF728
:1017FC00F3FEEEE70120F6E770B5036A102293437F
:10180C000362036A42688469174D2C400D682D02EF
:10181C0025432024A3438C6824012343134CA0426A
:10182C0019D0124CA04208D0114CA04205D0114C3A
:10183C00A04202D0104CA04207D1104C14404A696F
:10184C00920022438C69A6003243426085614A684B
:10185C008263036270BD8024A3431C00CB681B0110
:10186C0023434024A343DCE7FF8CFFFF002C014003
:10187C00004001400044014000480140FFF3FFFFDD
:10188C0070B504000D003C23C35C012B69D03C23D4
:10189C000121C15401330131C154082A4DD019D84A
:1018AC00002A2FD0042A40D129000068FFF7A4FF9A
:1018BC002268916980231B010B4393612268936911
:1018CC0029490B40936121688B692A6912021343E1
:1018DC008B612AE00C2A28D129000068FFF7EEFE64
:1018EC002268D16980231B010B43D3612268D36921
:1018FC001D490B40D3612168CB692A69120213433D
:10190C00CB6112E029000068FFF74CFE2268936956
:10191C0008210B4393612268936904398B439361CB
:10192C002268936929690B4393613D230122E25498
:10193C00013B0022E254002070BD29000068FFF733
:10194C0075FE2268D36908210B43D3612268D369E1
:10195C0004398B43D3612268D36929690B43D36162
:10196C00E3E70220E8E7C046FFFBFFFF30B53C236E
:10197C00C35C012B24D03C230122C254013301321D
:10198C00C25403685A689C687025AA430D682A43A0
:10199C005A6003680B4A934205D00B4A934202D01B
:1019AC000A4A934204D1802294434A6814439C60AF
:1019BC003D230122C254013B0022C254002030BD01
:1019CC000220FCE7002C01400004004000400140D4
:1019DC0010B53C23C35C012B21D03C220123835442
:1019EC00104BCC6823408C6823430F4C23404C682D
:1019FC0023430E4C23400C6823430D4C23400C69AD
:101A0C0023430C4C23404C6923430B4C2340C969A2
:101A1C000B4301684B6400238354002010BD02204B
:101A2C00FCE7C046FFFCFFFFFFFBFFFFFFF7FFFFDC
:101A3C00FFEFFFFFFFDFFFFFFFBFFFFF70B50400ED
:101A4C0083680269134342691343C26913430168F3
:101A5C000A687748024013430B6022685368754943
:101A6C000B40E1680B435360226AA3691A43216857
:101A7C008B687148034013438B6023686F4A934211
:101A8C0010D06F4A934241D06E4A934240D06E4A76
:101A9C0093423FD06D4A93423ED06D4A93422BD035
:101AAC0010250BE06B4B1A6B03231340022B25D034
:101ABC001ED8002B24D0012B24D1042580231B02FB
:101ACC00E2699A422AD0042D00D1A1E078D8002DE9
:101ADC0000D192E0022D70D1636858085E4B9C4691
:101AEC0060446168FEF708FB0004000C002578E0F8
:101AFC00032B09D10225E1E70025DFE70825DDE707
:101B0C000025DBE71025D9E71025D7E70025D5E719
:101B1C000025D3E70025D1E70025CFE7042D3FD0E2
:101B2C0012D8002D30D0022D0BD1636858084B4BC6
:101B3C009C4660446168FEF7DFFA0004000C002547
:101B4C0013E00125002010E0082D0CD16368580823
:101B5C0080235B029C4660446168FEF7CDFA00046A
:101B6C00000C002501E0012500203D4A0300103B3C
:101B7C00934259D80F2302009A434008083B18405F
:101B8C0010432368D86033E0FFF76EFC40006368B5
:101B9C005B08C0186168FEF7AFFA0004000CE4E7BC
:101BAC00FFF788FB400063685B08C0186168FEF7AC
:101BBC00A3FA0004000C0025D7E70125002010E053
:101BCC00082D0CD16368580880231B029C46604486
:101BDC006168FEF791FA0004000C002501E0012574
:101BEC0000201F4A0300103B93421FD82368D86083
:101BFC00002323666366280070BDFFF735FC63681D
:101C0C005B0818186168FEF777FA0004000CE8E727
:101C1C00FFF750FB63685B0818186168FEF76CFAF5
:101C2C000004000C0025DCE70125E1E70125DFE7D6
:101C3C00F369FFEFFFCFFFFFFFF4FFFF0038014018
:101C4C000044004000480040004C00400050004060
:101C5C00001401400010024000127A000024F4002D
:101C6C00EFFF0000436ADB0706D5026853682C4976
:101C7C000B40816A0B435360436A9B0706D502688D
:101C8C00536828490B40C16A0B435360436A5B0796
:101C9C0006D50268536824490B40016B0B43536013
:101CAC00436A1B0706D50268536820490B40416BF9
:101CBC000B435360436ADB0606D5026893681C49E4
:101CCC000B40816B0B439360436A9B0606D50268FD
:101CDC00936818490B40C16B0B439360436A5B06D6
:101CEC000BD50268536814490B40016C0B435360CD
:101CFC0080235B03026C9A420AD0436A1B0606D50A
:101D0C00026853680D490B40816C0B43536070475C
:101D1C00026853680A490B40416C0B435360ECE773
:101D2C00FFFFFDFFFFFFFEFFFFFFFBFFFF7FFFFF3E
:101D3C00FFEFFFFFFFDFFFFFFFFFEFFFFFFFF7FFEF
:101D4C00FFFF9FFFF8B5CE46474680B506000D0055
:101D5C0017009946089B98463368DC692C40641B35
:101D6C0063425C41BC423CD143460133F4D0FEF7A4
:101D7C000FFD4B46C01A404520D84346002B1DD0C2
:101D8C0033681A685207E7D5DA691205E4D5802260
:101D9C0012011A623268136814490B4013603268DE
:101DAC009368A331FF318B43936020237367B36730
:101DBC00F36750330022F254032013E032681368A7
:101DCC000A490B40136032689368A331FF318B438F
:101DDC00936020237367B36750330022F2540320BF
:101DEC0000E00020C0BCB946B046F8BD5FFEFFFF66
:101DFC0030B583B004000023C367FEF7C9FC0500AF
:101E0C0023681B681B070CD423681B685B0715D45D
:101E1C0020236367A36750330022E254002003B0F1
:101E2C0030BD80210C4B009303000022890320005D
:101E3C00FFF788FF0028E7D00320F0E78021064B4E
:101E4C0000932B000022C9032000FFF77BFF002822
:101E5C00DED00320E3E7C046FFFFFF0110B5041EF0
:101E6C002ED0436F002B21D0242363672268136884
:101E7C0001218B4313602000FFF7E0FD012814D0F3
:101E8C00636A002B18D1226853680E490B405360CB
:101E9C002268936808218B43936022681368073982
:101EAC000B4313602000FFF7A3FF10BD703300221B
:101EBC00C254FEF7D3FBD7E72000FFF7D3FEE2E7CF
:101ECC000120F2E7FFF7FFFF0D4885460D480E494C
:101EDC000E4A002302E0D458C4500433C4188C4278
:101EEC00F9D30B4A0B4C002301E013600432A242DD
:101EFC00FBD3FEF707FC00F011F8FEF7DAFAFEE769
:101F0C0000800020000000203C04002080210008FC
:101F1C003C040020CC050020FEE7000070B50C4D01
:101F2C000C4E761BB61005D0002408CD0134984712
:101F3C00A642FAD100F0EAF8074D084E761BB6100F
:101F4C0005D0002408CD01349847A642FAD170BDC3
:101F5C007421000874210008742100087C210008F9
:101F6C00F0B5050083074AD0541E002A44D0030064
:101F7C000322CEB202E00135013C3DD301332E7079
:101F8C001342F8D1032C2FD9FF220A401502154316
:101F9C002A0415430F2C35D92700103F3F093E0169
:101FAC00B4461E001A0010366644156055609560E4
:101FBC00D5601032B242F8D10F260C2201373F0106
:101FCC002640DB193700224217D03E1FB608B4005A
:101FDC00A4461A001C1D644420C2A242FCD1032456
:101FEC000136B6009B193C40002C05D0C9B21C1917
:101FFC00197001339C42FBD1F0BD3400F4E714009E
:10200C000300BFE72700E0E7034B10B5002B02D01D
:10201C00024800F005F810BD000000003D2000084B
:10202C0010B5010000230022002000F019F810BDAB
:10203C0070B5074D074C641BA41005D0013CA300E0
:10204C00EB589847002CF9D100F066F870BDC046EB
:10205C007C210008802100087047C0467047C046AC
:10206C00F0B5D6464F464646C0B5264F82B0060060
:10207C003868924698468946FFF7EEFF224B1B685C
:10208C000193A423019A5B00D558002D2ED06C68C7
:10209C001F2C30DC002E0FD1631C6B604B460234BE
:1020AC00A40038686351FFF7D9FF002002B0E0BCF0
:1020BC00BA46B146A846F0BD882251462800A30076
:1020CC00EB189950873AA2408930FF3001681143D0
:1020DC0001608421404649005850022EDCD12B006F
:1020EC008D33FF3319680A431A60D5E715004D3557
:1020FC00FF35D550CBE73868FFF7B0FF01204042E1
:10210C00D4E7C0463804002070210008F8B5C0465A
:10211C00F8BC08BC9E467047F8B5C046F8BC08BC75
:04212C009E46704714
:102130000000000000000000010203040607080977
:102140000000000001020304020304050607080959
:102150000A0B0C0D0E0F101000000000010203040A
:1021600005060708090A0B0C0D0E0F1000000000F1
:04217000100000203B
:0821740015200008E500000839
:04217C00BD0000089A
:1021800000127A00010000000400000000000000BE
:1021900000000000FC02002064030020CC030020AB
:1021A000000000000000000000000000000000002F
:1021B000000000000000000000000000000000001F
:1021C000000000000000000000000000000000000F
:1021D00000000000000000000000000000000000FF
:1021E00000000000000000000000000000000000EF
:1021F00000000000000000000000000000000000DF
:1022000000000000000000000000000000000000CE
:1022100000000000000000000000000000000000BE
:1022200000000000000000000000000000000000AE
:10223000000000000000000001000000000000009D
:102240000E33CDAB34126DE6ECDE05000B00000062
:10225000000000000000000000000000000000007E
:10226000000000000000000000000000000000006E
:10227000000000000000000000000000000000005E
:10228000000000000000000000000000000000004E
:0C25B0000000000000000000A805002052
:0400000508001ED5FC
:00000001FF
